{
  "contractName": "CCTVFootage",
  "abi": [
    {
      "inputs": [],
      "stateMutability": "nonpayable",
      "type": "constructor"
    },
    {
      "inputs": [],
      "name": "viewAdmin",
      "outputs": [
        {
          "internalType": "string",
          "name": "",
          "type": "string"
        },
        {
          "internalType": "string",
          "name": "",
          "type": "string"
        }
      ],
      "stateMutability": "view",
      "type": "function",
      "constant": true
    },
    {
      "inputs": [
        {
          "internalType": "string",
          "name": "name",
          "type": "string"
        },
        {
          "internalType": "string",
          "name": "email",
          "type": "string"
        },
        {
          "internalType": "string",
          "name": "password",
          "type": "string"
        }
      ],
      "name": "addPrivateOfficial",
      "outputs": [],
      "stateMutability": "nonpayable",
      "type": "function"
    },
    {
      "inputs": [],
      "name": "viewPrivateOfficial",
      "outputs": [
        {
          "internalType": "uint256[]",
          "name": "",
          "type": "uint256[]"
        },
        {
          "internalType": "string[]",
          "name": "",
          "type": "string[]"
        },
        {
          "internalType": "string[]",
          "name": "",
          "type": "string[]"
        },
        {
          "internalType": "string[]",
          "name": "",
          "type": "string[]"
        },
        {
          "internalType": "uint256[]",
          "name": "",
          "type": "uint256[]"
        }
      ],
      "stateMutability": "view",
      "type": "function",
      "constant": true
    },
    {
      "inputs": [
        {
          "internalType": "string",
          "name": "name",
          "type": "string"
        },
        {
          "internalType": "string",
          "name": "email",
          "type": "string"
        },
        {
          "internalType": "string",
          "name": "password",
          "type": "string"
        }
      ],
      "name": "addGovernmentOfficial",
      "outputs": [],
      "stateMutability": "nonpayable",
      "type": "function"
    },
    {
      "inputs": [],
      "name": "viewGovernmentOfficial",
      "outputs": [
        {
          "internalType": "uint256[]",
          "name": "",
          "type": "uint256[]"
        },
        {
          "internalType": "string[]",
          "name": "",
          "type": "string[]"
        },
        {
          "internalType": "string[]",
          "name": "",
          "type": "string[]"
        },
        {
          "internalType": "string[]",
          "name": "",
          "type": "string[]"
        },
        {
          "internalType": "uint256[]",
          "name": "",
          "type": "uint256[]"
        }
      ],
      "stateMutability": "view",
      "type": "function",
      "constant": true
    },
    {
      "inputs": [
        {
          "internalType": "uint256",
          "name": "gid1",
          "type": "uint256"
        },
        {
          "internalType": "uint256",
          "name": "status1",
          "type": "uint256"
        }
      ],
      "name": "updateGovernmentOfficial",
      "outputs": [],
      "stateMutability": "nonpayable",
      "type": "function"
    },
    {
      "inputs": [
        {
          "internalType": "uint256",
          "name": "pid1",
          "type": "uint256"
        },
        {
          "internalType": "uint256",
          "name": "status2",
          "type": "uint256"
        }
      ],
      "name": "updatePrivateOfficial",
      "outputs": [],
      "stateMutability": "nonpayable",
      "type": "function"
    }
  ],
  "bytecode": "0x60806040523480156200001157600080fd5b506000600e819055506000600f819055506040518060400160405280600f81526020017f61646d696e4061646d696e2e636f6d00000000000000000000000000000000008152506000908162000068919062000330565b506040518060400160405280600881526020017f61646d696e31323300000000000000000000000000000000000000000000000081525060019081620000af919062000330565b5062000417565b600081519050919050565b7f4e487b7100000000000000000000000000000000000000000000000000000000600052604160045260246000fd5b7f4e487b7100000000000000000000000000000000000000000000000000000000600052602260045260246000fd5b600060028204905060018216806200013857607f821691505b6020821081036200014e576200014d620000f0565b5b50919050565b60008190508160005260206000209050919050565b60006020601f8301049050919050565b600082821b905092915050565b600060088302620001b87fffffffffffffffffffffffffffffffffffffffffffffffffffffffffffffffff8262000179565b620001c4868362000179565b95508019841693508086168417925050509392505050565b6000819050919050565b6000819050919050565b6000620002116200020b6200020584620001dc565b620001e6565b620001dc565b9050919050565b6000819050919050565b6200022d83620001f0565b620002456200023c8262000218565b84845462000186565b825550505050565b600090565b6200025c6200024d565b6200026981848462000222565b505050565b5b8181101562000291576200028560008262000252565b6001810190506200026f565b5050565b601f821115620002e057620002aa8162000154565b620002b58462000169565b81016020851015620002c5578190505b620002dd620002d48562000169565b8301826200026e565b50505b505050565b600082821c905092915050565b60006200030560001984600802620002e5565b1980831691505092915050565b6000620003208383620002f2565b9150826002028217905092915050565b6200033b82620000b6565b67ffffffffffffffff811115620003575762000356620000c1565b5b6200036382546200011f565b6200037082828562000295565b600060209050601f831160018114620003a8576000841562000393578287015190505b6200039f858262000312565b8655506200040f565b601f198416620003b88662000154565b60005b82811015620003e257848901518255600182019150602085019450602081019050620003bb565b86831015620004025784890151620003fe601f891682620002f2565b8355505b6001600288020188555050505b505050505050565b61168c80620004276000396000f3fe608060405234801561001057600080fd5b506004361061007d5760003560e01c8063687872951161005b57806368787295146100dc57806376f6459e146100f85780639910ed9a14610114578063da0b68ab146101335761007d565b8063019972b8146100825780632d40da60146100a45780635588ddc8146100c0575b600080fd5b61008a610155565b60405161009b959493929190610ef8565b60405180910390f35b6100be60048036038101906100b991906110b7565b610495565b005b6100da60048036038101906100d5919061118a565b610615565b005b6100f660048036038101906100f191906110b7565b610686565b005b610112600480360381019061010d919061118a565b610806565b005b61011c610877565b60405161012a929190611214565b60405180910390f35b61013b61099e565b60405161014c959493929190610ef8565b60405180910390f35b6060806060806060600760086009600a600b848054806020026020016040519081016040528092919081815260200182805480156101b257602002820191906000526020600020905b81548152602001906001019080831161019e575b5050505050945083805480602002602001604051908101604052809291908181526020016000905b828210156102865783829060005260206000200180546101f99061127a565b80601f01602080910402602001604051908101604052809291908181526020018280546102259061127a565b80156102725780601f1061024757610100808354040283529160200191610272565b820191906000526020600020905b81548152906001019060200180831161025557829003601f168201915b5050505050815260200190600101906101da565b50505050935082805480602002602001604051908101604052809291908181526020016000905b828210156103595783829060005260206000200180546102cc9061127a565b80601f01602080910402602001604051908101604052809291908181526020018280546102f89061127a565b80156103455780601f1061031a57610100808354040283529160200191610345565b820191906000526020600020905b81548152906001019060200180831161032857829003601f168201915b5050505050815260200190600101906102ad565b50505050925081805480602002602001604051908101604052809291908181526020016000905b8282101561042c57838290600052602060002001805461039f9061127a565b80601f01602080910402602001604051908101604052809291908181526020018280546103cb9061127a565b80156104185780601f106103ed57610100808354040283529160200191610418565b820191906000526020600020905b8154815290600101906020018083116103fb57829003601f168201915b505050505081526020019060010190610380565b5050505091508080548060200260200160405190810160405280929190818152602001828054801561047d57602002820191906000526020600020905b815481526020019060010190808311610469575b50505050509050945094509450945094509091929394565b600d826040516104a591906112e7565b908152602001604051809103902060009054906101000a900460ff16156104cb57600080fd5b6001600f60008282546104de919061132d565b92505081905550600883908060018154018082558091505060019003906000526020600020016000909190919091509081610519919061150d565b5060098290806001815401808255809150506001900390600052602060002001600090919091909150908161054e919061150d565b50600a81908060018154018082558091505060019003906000526020600020016000909190919091509081610583919061150d565b506007600e549080600181540180825580915050600190039060005260206000200160009091909190915055600b600090806001815401808255809150506001900390600052602060002001600090919091909150556001600d836040516105eb91906112e7565b908152602001604051809103902060006101000a81548160ff021916908315150217905550505050565b60005b60028054905081101561068157826002828154811061063a576106396115df565b5b90600052602060002001540361066e57816006828154811061065f5761065e6115df565b5b90600052602060002001819055505b80806106799061160e565b915050610618565b505050565b600c8260405161069691906112e7565b908152602001604051809103902060009054906101000a900460ff16156106bc57600080fd5b6001600e60008282546106cf919061132d565b9250508190555060038390806001815401808255809150506001900390600052602060002001600090919091909150908161070a919061150d565b5060048290806001815401808255809150506001900390600052602060002001600090919091909150908161073f919061150d565b50600581908060018154018082558091505060019003906000526020600020016000909190919091509081610774919061150d565b506002600e5490806001815401808255809150506001900390600052602060002001600090919091909150556006600090806001815401808255809150506001900390600052602060002001600090919091909150556001600c836040516107dc91906112e7565b908152602001604051809103902060006101000a81548160ff021916908315150217905550505050565b60005b60078054905081101561087257826007828154811061082b5761082a6115df565b5b90600052602060002001540361085f5781600b82815481106108505761084f6115df565b5b90600052602060002001819055505b808061086a9061160e565b915050610809565b505050565b6060806000600181805461088a9061127a565b80601f01602080910402602001604051908101604052809291908181526020018280546108b69061127a565b80156109035780601f106108d857610100808354040283529160200191610903565b820191906000526020600020905b8154815290600101906020018083116108e657829003601f168201915b505050505091508080546109169061127a565b80601f01602080910402602001604051908101604052809291908181526020018280546109429061127a565b801561098f5780601f106109645761010080835404028352916020019161098f565b820191906000526020600020905b81548152906001019060200180831161097257829003601f168201915b50505050509050915091509091565b606080606080606060026003600460056006848054806020026020016040519081016040528092919081815260200182805480156109fb57602002820191906000526020600020905b8154815260200190600101908083116109e7575b5050505050945083805480602002602001604051908101604052809291908181526020016000905b82821015610acf578382906000526020600020018054610a429061127a565b80601f0160208091040260200160405190810160405280929190818152602001828054610a6e9061127a565b8015610abb5780601f10610a9057610100808354040283529160200191610abb565b820191906000526020600020905b815481529060010190602001808311610a9e57829003601f168201915b505050505081526020019060010190610a23565b50505050935082805480602002602001604051908101604052809291908181526020016000905b82821015610ba2578382906000526020600020018054610b159061127a565b80601f0160208091040260200160405190810160405280929190818152602001828054610b419061127a565b8015610b8e5780601f10610b6357610100808354040283529160200191610b8e565b820191906000526020600020905b815481529060010190602001808311610b7157829003601f168201915b505050505081526020019060010190610af6565b50505050925081805480602002602001604051908101604052809291908181526020016000905b82821015610c75578382906000526020600020018054610be89061127a565b80601f0160208091040260200160405190810160405280929190818152602001828054610c149061127a565b8015610c615780601f10610c3657610100808354040283529160200191610c61565b820191906000526020600020905b815481529060010190602001808311610c4457829003601f168201915b505050505081526020019060010190610bc9565b50505050915080805480602002602001604051908101604052809291908181526020018280548015610cc657602002820191906000526020600020905b815481526020019060010190808311610cb2575b50505050509050945094509450945094509091929394565b600081519050919050565b600082825260208201905092915050565b6000819050602082019050919050565b6000819050919050565b610d1d81610d0a565b82525050565b6000610d2f8383610d14565b60208301905092915050565b6000602082019050919050565b6000610d5382610cde565b610d5d8185610ce9565b9350610d6883610cfa565b8060005b83811015610d99578151610d808882610d23565b9750610d8b83610d3b565b925050600181019050610d6c565b5085935050505092915050565b600081519050919050565b600082825260208201905092915050565b6000819050602082019050919050565b600081519050919050565b600082825260208201905092915050565b60005b83811015610e0c578082015181840152602081019050610df1565b60008484015250505050565b6000601f19601f8301169050919050565b6000610e3482610dd2565b610e3e8185610ddd565b9350610e4e818560208601610dee565b610e5781610e18565b840191505092915050565b6000610e6e8383610e29565b905092915050565b6000602082019050919050565b6000610e8e82610da6565b610e988185610db1565b935083602082028501610eaa85610dc2565b8060005b85811015610ee65784840389528151610ec78582610e62565b9450610ed283610e76565b925060208a01995050600181019050610eae565b50829750879550505050505092915050565b600060a0820190508181036000830152610f128188610d48565b90508181036020830152610f268187610e83565b90508181036040830152610f3a8186610e83565b90508181036060830152610f4e8185610e83565b90508181036080830152610f628184610d48565b90509695505050505050565b6000604051905090565b600080fd5b600080fd5b600080fd5b600080fd5b7f4e487b7100000000000000000000000000000000000000000000000000000000600052604160045260246000fd5b610fc482610e18565b810181811067ffffffffffffffff82111715610fe357610fe2610f8c565b5b80604052505050565b6000610ff6610f6e565b90506110028282610fbb565b919050565b600067ffffffffffffffff82111561102257611021610f8c565b5b61102b82610e18565b9050602081019050919050565b82818337600083830152505050565b600061105a61105584611007565b610fec565b90508281526020810184848401111561107657611075610f87565b5b611081848285611038565b509392505050565b600082601f83011261109e5761109d610f82565b5b81356110ae848260208601611047565b91505092915050565b6000806000606084860312156110d0576110cf610f78565b5b600084013567ffffffffffffffff8111156110ee576110ed610f7d565b5b6110fa86828701611089565b935050602084013567ffffffffffffffff81111561111b5761111a610f7d565b5b61112786828701611089565b925050604084013567ffffffffffffffff81111561114857611147610f7d565b5b61115486828701611089565b9150509250925092565b61116781610d0a565b811461117257600080fd5b50565b6000813590506111848161115e565b92915050565b600080604083850312156111a1576111a0610f78565b5b60006111af85828601611175565b92505060206111c085828601611175565b9150509250929050565b600082825260208201905092915050565b60006111e682610dd2565b6111f081856111ca565b9350611200818560208601610dee565b61120981610e18565b840191505092915050565b6000604082019050818103600083015261122e81856111db565b9050818103602083015261124281846111db565b90509392505050565b7f4e487b7100000000000000000000000000000000000000000000000000000000600052602260045260246000fd5b6000600282049050600182168061129257607f821691505b6020821081036112a5576112a461124b565b5b50919050565b600081905092915050565b60006112c182610dd2565b6112cb81856112ab565b93506112db818560208601610dee565b80840191505092915050565b60006112f382846112b6565b915081905092915050565b7f4e487b7100000000000000000000000000000000000000000000000000000000600052601160045260246000fd5b600061133882610d0a565b915061134383610d0a565b925082820190508082111561135b5761135a6112fe565b5b92915050565b60008190508160005260206000209050919050565b60006020601f8301049050919050565b600082821b905092915050565b6000600883026113c37fffffffffffffffffffffffffffffffffffffffffffffffffffffffffffffffff82611386565b6113cd8683611386565b95508019841693508086168417925050509392505050565b6000819050919050565b600061140a61140561140084610d0a565b6113e5565b610d0a565b9050919050565b6000819050919050565b611424836113ef565b61143861143082611411565b848454611393565b825550505050565b600090565b61144d611440565b61145881848461141b565b505050565b5b8181101561147c57611471600082611445565b60018101905061145e565b5050565b601f8211156114c15761149281611361565b61149b84611376565b810160208510156114aa578190505b6114be6114b685611376565b83018261145d565b50505b505050565b600082821c905092915050565b60006114e4600019846008026114c6565b1980831691505092915050565b60006114fd83836114d3565b9150826002028217905092915050565b61151682610dd2565b67ffffffffffffffff81111561152f5761152e610f8c565b5b611539825461127a565b611544828285611480565b600060209050601f8311600181146115775760008415611565578287015190505b61156f85826114f1565b8655506115d7565b601f19841661158586611361565b60005b828110156115ad57848901518255600182019150602085019450602081019050611588565b868310156115ca57848901516115c6601f8916826114d3565b8355505b6001600288020188555050505b505050505050565b7f4e487b7100000000000000000000000000000000000000000000000000000000600052603260045260246000fd5b600061161982610d0a565b91507fffffffffffffffffffffffffffffffffffffffffffffffffffffffffffffffff820361164b5761164a6112fe565b5b60018201905091905056fea26469706673582212204a6b407cab7a4d00a08ca0506037d3b09ba5e87d38970781bd3c5a78a856e68c64736f6c63430008130033",
  "immutableReferences": {},
  "source": "// SPDX-License-Identifier: MIT\r\npragma solidity >=0.4.22 <0.9.0;\r\n\r\ncontract CCTVFootage {\r\n\r\n  string adminEmail;\r\n  string adminPassword;\r\n\r\n  uint[] _pids;\r\n  string[] _pname;\r\n  string[] _pemail;\r\n  string[] _ppassword;\r\n  uint[] _pstatuses;\r\n\r\n  uint[] _gids;\r\n  string[] _gname;\r\n  string[] _gemail;\r\n  string[] _gpassword;\r\n  uint[] _gstatuses;\r\n\r\n  mapping(string=>bool) _registeredPrivate;\r\n  mapping(string=>bool) _registeredGovt;\r\n\r\n  uint pid;\r\n  uint gid;\r\n\r\n  constructor() {\r\n    pid=0;\r\n    gid=0;\r\n    adminEmail=\"admin@admin.com\";\r\n    adminPassword=\"admin123\";\r\n  }\r\n\r\n  function viewAdmin() public view returns(string memory,string memory){\r\n    return (adminEmail,adminPassword);\r\n  }\r\n\r\n  function addPrivateOfficial(string memory name,string memory email,string memory password) public{\r\n\r\n    require(!_registeredPrivate[email]);\r\n\r\n    pid+=1;\r\n    _pname.push(name);\r\n    _pemail.push(email);\r\n    _ppassword.push(password);\r\n    _pids.push(pid);\r\n    _pstatuses.push(0);\r\n\r\n    _registeredPrivate[email]=true;\r\n  } \r\n\r\n  function viewPrivateOfficial() public view returns(uint[] memory,string[] memory,string[] memory,string[] memory,uint[] memory){\r\n    return(_pids,_pname,_pemail,_ppassword,_pstatuses);\r\n  }\r\n\r\n  function addGovernmentOfficial(string memory name,string memory email,string memory password) public {\r\n    require(!_registeredGovt[email]);\r\n\r\n    gid+=1;\r\n    _gname.push(name);\r\n    _gemail.push(email);\r\n    _gpassword.push(password);\r\n    _gids.push(pid);\r\n    _gstatuses.push(0);\r\n\r\n    _registeredGovt[email]=true;\r\n  }\r\n\r\n  function viewGovernmentOfficial() public view returns(uint[] memory,string[] memory,string[] memory,string[] memory,uint[] memory){\r\n    return(_gids,_gname,_gemail,_gpassword,_gstatuses);\r\n  }\r\n\r\n  function updateGovernmentOfficial(uint gid1,uint status1) public {\r\n    uint i;\r\n    for(i=0;i<_gids.length;i++){\r\n      if(_gids[i]==gid1){\r\n        _gstatuses[i]=status1;\r\n      }\r\n    }\r\n  }\r\n\r\n  function updatePrivateOfficial(uint pid1,uint status2) public {\r\n    uint i;\r\n    for(i=0;i<_pids.length;i++){\r\n      if(_pids[i]==pid1){\r\n        _pstatuses[i]=status2;\r\n      }\r\n    }\r\n  }\r\n\r\n}\r\n",
  "sourcePath": "C:\\Users\\Madhu\\Desktop\\cctv-footage-detection\\contracts\\CCTVFootage.sol",
  "compiler": {
    "name": "solc",
    "version": "0.8.19+commit.7dd6d404.Emscripten.clang"
  },
  "schemaVersion": "3.4.16",
  "updatedAt": "2024-03-10T07:50:52.280Z",
  "networkType": "ethereum",
  "devdoc": {
    "kind": "dev",
    "methods": {},
    "version": 1
  },
  "userdoc": {
    "kind": "user",
    "methods": {},
    "version": 1
  }
}