{
  "contractName": "CCTVFootage",
  "abi": [
    {
      "inputs": [],
      "stateMutability": "nonpayable",
      "type": "constructor"
    },
    {
      "inputs": [],
      "name": "viewAdmin",
      "outputs": [
        {
          "internalType": "string",
          "name": "",
          "type": "string"
        },
        {
          "internalType": "string",
          "name": "",
          "type": "string"
        }
      ],
      "stateMutability": "view",
      "type": "function",
      "constant": true
    },
    {
      "inputs": [
        {
          "internalType": "string",
          "name": "name",
          "type": "string"
        },
        {
          "internalType": "string",
          "name": "email",
          "type": "string"
        },
        {
          "internalType": "string",
          "name": "password",
          "type": "string"
        }
      ],
      "name": "addPrivateOfficial",
      "outputs": [],
      "stateMutability": "nonpayable",
      "type": "function"
    },
    {
      "inputs": [],
      "name": "viewPrivateOfficial",
      "outputs": [
        {
          "internalType": "uint256[]",
          "name": "",
          "type": "uint256[]"
        },
        {
          "internalType": "string[]",
          "name": "",
          "type": "string[]"
        },
        {
          "internalType": "string[]",
          "name": "",
          "type": "string[]"
        },
        {
          "internalType": "string[]",
          "name": "",
          "type": "string[]"
        }
      ],
      "stateMutability": "view",
      "type": "function",
      "constant": true
    },
    {
      "inputs": [
        {
          "internalType": "string",
          "name": "name",
          "type": "string"
        },
        {
          "internalType": "string",
          "name": "email",
          "type": "string"
        },
        {
          "internalType": "string",
          "name": "password",
          "type": "string"
        }
      ],
      "name": "addGovernmentOfficial",
      "outputs": [],
      "stateMutability": "nonpayable",
      "type": "function"
    },
    {
      "inputs": [],
      "name": "viewGovernmentOfficial",
      "outputs": [
        {
          "internalType": "uint256[]",
          "name": "",
          "type": "uint256[]"
        },
        {
          "internalType": "string[]",
          "name": "",
          "type": "string[]"
        },
        {
          "internalType": "string[]",
          "name": "",
          "type": "string[]"
        },
        {
          "internalType": "string[]",
          "name": "",
          "type": "string[]"
        }
      ],
      "stateMutability": "view",
      "type": "function",
      "constant": true
    }
  ],
  "bytecode": "0x60806040523480156200001157600080fd5b506000600c819055506000600d819055506040518060400160405280600f81526020017f61646d696e4061646d696e2e636f6d00000000000000000000000000000000008152506000908162000068919062000330565b506040518060400160405280600881526020017f61646d696e31323300000000000000000000000000000000000000000000000081525060019081620000af919062000330565b5062000417565b600081519050919050565b7f4e487b7100000000000000000000000000000000000000000000000000000000600052604160045260246000fd5b7f4e487b7100000000000000000000000000000000000000000000000000000000600052602260045260246000fd5b600060028204905060018216806200013857607f821691505b6020821081036200014e576200014d620000f0565b5b50919050565b60008190508160005260206000209050919050565b60006020601f8301049050919050565b600082821b905092915050565b600060088302620001b87fffffffffffffffffffffffffffffffffffffffffffffffffffffffffffffffff8262000179565b620001c4868362000179565b95508019841693508086168417925050509392505050565b6000819050919050565b6000819050919050565b6000620002116200020b6200020584620001dc565b620001e6565b620001dc565b9050919050565b6000819050919050565b6200022d83620001f0565b620002456200023c8262000218565b84845462000186565b825550505050565b600090565b6200025c6200024d565b6200026981848462000222565b505050565b5b8181101562000291576200028560008262000252565b6001810190506200026f565b5050565b601f821115620002e057620002aa8162000154565b620002b58462000169565b81016020851015620002c5578190505b620002dd620002d48562000169565b8301826200026e565b50505b505050565b600082821c905092915050565b60006200030560001984600802620002e5565b1980831691505092915050565b6000620003208383620002f2565b9150826002028217905092915050565b6200033b82620000b6565b67ffffffffffffffff811115620003575762000356620000c1565b5b6200036382546200011f565b6200037082828562000295565b600060209050601f831160018114620003a8576000841562000393578287015190505b6200039f858262000312565b8655506200040f565b601f198416620003b88662000154565b60005b82811015620003e257848901518255600182019150602085019450602081019050620003bb565b86831015620004025784890151620003fe601f891682620002f2565b8355505b6001600288020188555050505b505050505050565b61134c80620004276000396000f3fe608060405234801561001057600080fd5b50600436106100575760003560e01c8063019972b81461005c5780632d40da601461007d57806368787295146100995780639910ed9a146100b5578063da0b68ab146100d4575b600080fd5b6100646100f5565b6040516100749493929190610cb0565b60405180910390f35b61009760048036038101906100929190610e5a565b6103dc565b005b6100b360048036038101906100ae9190610e5a565b610532565b005b6100bd610688565b6040516100cb929190610f4b565b60405180910390f35b6100dc6107af565b6040516100ec9493929190610cb0565b60405180910390f35b60608060608060066007600860098380548060200260200160405190810160405280929190818152602001828054801561014e57602002820191906000526020600020905b81548152602001906001019080831161013a575b5050505050935082805480602002602001604051908101604052809291908181526020016000905b8282101561022257838290600052602060002001805461019590610fb1565b80601f01602080910402602001604051908101604052809291908181526020018280546101c190610fb1565b801561020e5780601f106101e35761010080835404028352916020019161020e565b820191906000526020600020905b8154815290600101906020018083116101f157829003601f168201915b505050505081526020019060010190610176565b50505050925081805480602002602001604051908101604052809291908181526020016000905b828210156102f557838290600052602060002001805461026890610fb1565b80601f016020809104026020016040519081016040528092919081815260200182805461029490610fb1565b80156102e15780601f106102b6576101008083540402835291602001916102e1565b820191906000526020600020905b8154815290600101906020018083116102c457829003601f168201915b505050505081526020019060010190610249565b50505050915080805480602002602001604051908101604052809291908181526020016000905b828210156103c857838290600052602060002001805461033b90610fb1565b80601f016020809104026020016040519081016040528092919081815260200182805461036790610fb1565b80156103b45780601f10610389576101008083540402835291602001916103b4565b820191906000526020600020905b81548152906001019060200180831161039757829003601f168201915b50505050508152602001906001019061031c565b505050509050935093509350935090919293565b600b826040516103ec919061101e565b908152602001604051809103902060009054906101000a900460ff161561041257600080fd5b6001600d60008282546104259190611064565b925050819055506007839080600181540180825580915050600190039060005260206000200160009091909190915090816104609190611244565b506008829080600181540180825580915050600190039060005260206000200160009091909190915090816104959190611244565b506009819080600181540180825580915050600190039060005260206000200160009091909190915090816104ca9190611244565b506006600c5490806001815401808255809150506001900390600052602060002001600090919091909150556001600b83604051610508919061101e565b908152602001604051809103902060006101000a81548160ff021916908315150217905550505050565b600a82604051610542919061101e565b908152602001604051809103902060009054906101000a900460ff161561056857600080fd5b6001600c600082825461057b9190611064565b925050819055506003839080600181540180825580915050600190039060005260206000200160009091909190915090816105b69190611244565b506004829080600181540180825580915050600190039060005260206000200160009091909190915090816105eb9190611244565b506005819080600181540180825580915050600190039060005260206000200160009091909190915090816106209190611244565b506002600c5490806001815401808255809150506001900390600052602060002001600090919091909150556001600a8360405161065e919061101e565b908152602001604051809103902060006101000a81548160ff021916908315150217905550505050565b6060806000600181805461069b90610fb1565b80601f01602080910402602001604051908101604052809291908181526020018280546106c790610fb1565b80156107145780601f106106e957610100808354040283529160200191610714565b820191906000526020600020905b8154815290600101906020018083116106f757829003601f168201915b5050505050915080805461072790610fb1565b80601f016020809104026020016040519081016040528092919081815260200182805461075390610fb1565b80156107a05780601f10610775576101008083540402835291602001916107a0565b820191906000526020600020905b81548152906001019060200180831161078357829003601f168201915b50505050509050915091509091565b60608060608060026003600460058380548060200260200160405190810160405280929190818152602001828054801561080857602002820191906000526020600020905b8154815260200190600101908083116107f4575b5050505050935082805480602002602001604051908101604052809291908181526020016000905b828210156108dc57838290600052602060002001805461084f90610fb1565b80601f016020809104026020016040519081016040528092919081815260200182805461087b90610fb1565b80156108c85780601f1061089d576101008083540402835291602001916108c8565b820191906000526020600020905b8154815290600101906020018083116108ab57829003601f168201915b505050505081526020019060010190610830565b50505050925081805480602002602001604051908101604052809291908181526020016000905b828210156109af57838290600052602060002001805461092290610fb1565b80601f016020809104026020016040519081016040528092919081815260200182805461094e90610fb1565b801561099b5780601f106109705761010080835404028352916020019161099b565b820191906000526020600020905b81548152906001019060200180831161097e57829003601f168201915b505050505081526020019060010190610903565b50505050915080805480602002602001604051908101604052809291908181526020016000905b82821015610a825783829060005260206000200180546109f590610fb1565b80601f0160208091040260200160405190810160405280929190818152602001828054610a2190610fb1565b8015610a6e5780601f10610a4357610100808354040283529160200191610a6e565b820191906000526020600020905b815481529060010190602001808311610a5157829003601f168201915b5050505050815260200190600101906109d6565b505050509050935093509350935090919293565b600081519050919050565b600082825260208201905092915050565b6000819050602082019050919050565b6000819050919050565b610ad581610ac2565b82525050565b6000610ae78383610acc565b60208301905092915050565b6000602082019050919050565b6000610b0b82610a96565b610b158185610aa1565b9350610b2083610ab2565b8060005b83811015610b51578151610b388882610adb565b9750610b4383610af3565b925050600181019050610b24565b5085935050505092915050565b600081519050919050565b600082825260208201905092915050565b6000819050602082019050919050565b600081519050919050565b600082825260208201905092915050565b60005b83811015610bc4578082015181840152602081019050610ba9565b60008484015250505050565b6000601f19601f8301169050919050565b6000610bec82610b8a565b610bf68185610b95565b9350610c06818560208601610ba6565b610c0f81610bd0565b840191505092915050565b6000610c268383610be1565b905092915050565b6000602082019050919050565b6000610c4682610b5e565b610c508185610b69565b935083602082028501610c6285610b7a565b8060005b85811015610c9e5784840389528151610c7f8582610c1a565b9450610c8a83610c2e565b925060208a01995050600181019050610c66565b50829750879550505050505092915050565b60006080820190508181036000830152610cca8187610b00565b90508181036020830152610cde8186610c3b565b90508181036040830152610cf28185610c3b565b90508181036060830152610d068184610c3b565b905095945050505050565b6000604051905090565b600080fd5b600080fd5b600080fd5b600080fd5b7f4e487b7100000000000000000000000000000000000000000000000000000000600052604160045260246000fd5b610d6782610bd0565b810181811067ffffffffffffffff82111715610d8657610d85610d2f565b5b80604052505050565b6000610d99610d11565b9050610da58282610d5e565b919050565b600067ffffffffffffffff821115610dc557610dc4610d2f565b5b610dce82610bd0565b9050602081019050919050565b82818337600083830152505050565b6000610dfd610df884610daa565b610d8f565b905082815260208101848484011115610e1957610e18610d2a565b5b610e24848285610ddb565b509392505050565b600082601f830112610e4157610e40610d25565b5b8135610e51848260208601610dea565b91505092915050565b600080600060608486031215610e7357610e72610d1b565b5b600084013567ffffffffffffffff811115610e9157610e90610d20565b5b610e9d86828701610e2c565b935050602084013567ffffffffffffffff811115610ebe57610ebd610d20565b5b610eca86828701610e2c565b925050604084013567ffffffffffffffff811115610eeb57610eea610d20565b5b610ef786828701610e2c565b9150509250925092565b600082825260208201905092915050565b6000610f1d82610b8a565b610f278185610f01565b9350610f37818560208601610ba6565b610f4081610bd0565b840191505092915050565b60006040820190508181036000830152610f658185610f12565b90508181036020830152610f798184610f12565b90509392505050565b7f4e487b7100000000000000000000000000000000000000000000000000000000600052602260045260246000fd5b60006002820490506001821680610fc957607f821691505b602082108103610fdc57610fdb610f82565b5b50919050565b600081905092915050565b6000610ff882610b8a565b6110028185610fe2565b9350611012818560208601610ba6565b80840191505092915050565b600061102a8284610fed565b915081905092915050565b7f4e487b7100000000000000000000000000000000000000000000000000000000600052601160045260246000fd5b600061106f82610ac2565b915061107a83610ac2565b925082820190508082111561109257611091611035565b5b92915050565b60008190508160005260206000209050919050565b60006020601f8301049050919050565b600082821b905092915050565b6000600883026110fa7fffffffffffffffffffffffffffffffffffffffffffffffffffffffffffffffff826110bd565b61110486836110bd565b95508019841693508086168417925050509392505050565b6000819050919050565b600061114161113c61113784610ac2565b61111c565b610ac2565b9050919050565b6000819050919050565b61115b83611126565b61116f61116782611148565b8484546110ca565b825550505050565b600090565b611184611177565b61118f818484611152565b505050565b5b818110156111b3576111a860008261117c565b600181019050611195565b5050565b601f8211156111f8576111c981611098565b6111d2846110ad565b810160208510156111e1578190505b6111f56111ed856110ad565b830182611194565b50505b505050565b600082821c905092915050565b600061121b600019846008026111fd565b1980831691505092915050565b6000611234838361120a565b9150826002028217905092915050565b61124d82610b8a565b67ffffffffffffffff81111561126657611265610d2f565b5b6112708254610fb1565b61127b8282856111b7565b600060209050601f8311600181146112ae576000841561129c578287015190505b6112a68582611228565b86555061130e565b601f1984166112bc86611098565b60005b828110156112e4578489015182556001820191506020850194506020810190506112bf565b8683101561130157848901516112fd601f89168261120a565b8355505b6001600288020188555050505b50505050505056fea264697066735822122020282c3c7d83b022396c4d215083f933f8cc6ec64f9c9cbe15e0613c6f17ad8364736f6c63430008130033",
  "immutableReferences": {},
  "source": "// SPDX-License-Identifier: MIT\npragma solidity >=0.4.22 <0.9.0;\n\ncontract CCTVFootage {\n\n  string adminEmail;\n  string adminPassword;\n\n  uint[] _pids;\n  string[] _pname;\n  string[] _pemail;\n  string[] _ppassword;\n\n  uint[] _gids;\n  string[] _gname;\n  string[] _gemail;\n  string[] _gpassword;\n\n  mapping(string=>bool) _registeredPrivate;\n  mapping(string=>bool) _registeredGovt;\n\n  uint pid;\n  uint gid;\n\n  constructor() {\n    pid=0;\n    gid=0;\n    adminEmail=\"admin@admin.com\";\n    adminPassword=\"admin123\";\n  }\n\n  function viewAdmin() public view returns(string memory,string memory){\n    return (adminEmail,adminPassword);\n  }\n\n  function addPrivateOfficial(string memory name,string memory email,string memory password) public{\n\n    require(!_registeredPrivate[email]);\n\n    pid+=1;\n    _pname.push(name);\n    _pemail.push(email);\n    _ppassword.push(password);\n    _pids.push(pid);\n\n    _registeredPrivate[email]=true;\n  } \n\n  function viewPrivateOfficial() public view returns(uint[] memory,string[] memory,string[] memory,string[] memory){\n    return(_pids,_pname,_pemail,_ppassword);\n  }\n\n  function addGovernmentOfficial(string memory name,string memory email,string memory password) public {\n    require(!_registeredGovt[email]);\n\n    gid+=1;\n    _gname.push(name);\n    _gemail.push(email);\n    _gpassword.push(password);\n    _gids.push(pid);\n\n    _registeredGovt[email]=true;\n  }\n\n  function viewGovernmentOfficial() public view returns(uint[] memory,string[] memory,string[] memory,string[] memory){\n    return(_gids,_gname,_gemail,_gpassword);\n  }\n\n}\n",
  "sourcePath": "/Users/ms/Downloads/cctv-footage-blockchain/contracts/CCTVFootage.sol",
  "compiler": {
    "name": "solc",
    "version": "0.8.19+commit.7dd6d404.Emscripten.clang"
  },
  "schemaVersion": "3.4.16",
  "updatedAt": "2024-03-09T14:19:54.815Z",
  "networkType": "ethereum",
  "devdoc": {
    "kind": "dev",
    "methods": {},
    "version": 1
  },
  "userdoc": {
    "kind": "user",
    "methods": {},
    "version": 1
  }
}