{
  "contractName": "VideoFeed",
  "abi": [
    {
      "inputs": [
        {
          "internalType": "string",
          "name": "owner",
          "type": "string"
        },
        {
          "internalType": "string",
          "name": "date",
          "type": "string"
        },
        {
          "internalType": "string",
          "name": "time",
          "type": "string"
        },
        {
          "internalType": "string",
          "name": "videohash",
          "type": "string"
        }
      ],
      "name": "addVideoHash",
      "outputs": [],
      "stateMutability": "nonpayable",
      "type": "function"
    },
    {
      "inputs": [],
      "name": "viewHashes",
      "outputs": [
        {
          "internalType": "string[]",
          "name": "",
          "type": "string[]"
        },
        {
          "internalType": "string[]",
          "name": "",
          "type": "string[]"
        },
        {
          "internalType": "string[]",
          "name": "",
          "type": "string[]"
        },
        {
          "internalType": "string[]",
          "name": "",
          "type": "string[]"
        }
      ],
      "stateMutability": "view",
      "type": "function",
      "constant": true
    }
  ],
  "bytecode": "0x608060405234801561001057600080fd5b50610bab806100206000396000f3fe608060405234801561001057600080fd5b50600436106100365760003560e01c80632ec484891461003b578063cdee40f21461005c575b600080fd5b610043610078565b604051610053949392919061060c565b60405180910390f35b610076600480360381019061007191906107b6565b6103e0565b005b606080606080600060016002600383805480602002602001604051908101604052809291908181526020016000905b828210156101535783829060005260206000200180546100c6906108bc565b80601f01602080910402602001604051908101604052809291908181526020018280546100f2906108bc565b801561013f5780601f106101145761010080835404028352916020019161013f565b820191906000526020600020905b81548152906001019060200180831161012257829003601f168201915b5050505050815260200190600101906100a7565b50505050935082805480602002602001604051908101604052809291908181526020016000905b82821015610226578382906000526020600020018054610199906108bc565b80601f01602080910402602001604051908101604052809291908181526020018280546101c5906108bc565b80156102125780601f106101e757610100808354040283529160200191610212565b820191906000526020600020905b8154815290600101906020018083116101f557829003601f168201915b50505050508152602001906001019061017a565b50505050925081805480602002602001604051908101604052809291908181526020016000905b828210156102f957838290600052602060002001805461026c906108bc565b80601f0160208091040260200160405190810160405280929190818152602001828054610298906108bc565b80156102e55780601f106102ba576101008083540402835291602001916102e5565b820191906000526020600020905b8154815290600101906020018083116102c857829003601f168201915b50505050508152602001906001019061024d565b50505050915080805480602002602001604051908101604052809291908181526020016000905b828210156103cc57838290600052602060002001805461033f906108bc565b80601f016020809104026020016040519081016040528092919081815260200182805461036b906108bc565b80156103b85780601f1061038d576101008083540402835291602001916103b8565b820191906000526020600020905b81548152906001019060200180831161039b57829003601f168201915b505050505081526020019060010190610320565b505050509050935093509350935090919293565b6000849080600181540180825580915050600190039060005260206000200160009091909190915090816104149190610aa3565b506001839080600181540180825580915050600190039060005260206000200160009091909190915090816104499190610aa3565b5060028290806001815401808255809150506001900390600052602060002001600090919091909150908161047e9190610aa3565b506003819080600181540180825580915050600190039060005260206000200160009091909190915090816104b39190610aa3565b5050505050565b600081519050919050565b600082825260208201905092915050565b6000819050602082019050919050565b600081519050919050565b600082825260208201905092915050565b60005b83811015610520578082015181840152602081019050610505565b60008484015250505050565b6000601f19601f8301169050919050565b6000610548826104e6565b61055281856104f1565b9350610562818560208601610502565b61056b8161052c565b840191505092915050565b6000610582838361053d565b905092915050565b6000602082019050919050565b60006105a2826104ba565b6105ac81856104c5565b9350836020820285016105be856104d6565b8060005b858110156105fa57848403895281516105db8582610576565b94506105e68361058a565b925060208a019950506001810190506105c2565b50829750879550505050505092915050565b600060808201905081810360008301526106268187610597565b9050818103602083015261063a8186610597565b9050818103604083015261064e8185610597565b905081810360608301526106628184610597565b905095945050505050565b6000604051905090565b600080fd5b600080fd5b600080fd5b600080fd5b7f4e487b7100000000000000000000000000000000000000000000000000000000600052604160045260246000fd5b6106c38261052c565b810181811067ffffffffffffffff821117156106e2576106e161068b565b5b80604052505050565b60006106f561066d565b905061070182826106ba565b919050565b600067ffffffffffffffff8211156107215761072061068b565b5b61072a8261052c565b9050602081019050919050565b82818337600083830152505050565b600061075961075484610706565b6106eb565b90508281526020810184848401111561077557610774610686565b5b610780848285610737565b509392505050565b600082601f83011261079d5761079c610681565b5b81356107ad848260208601610746565b91505092915050565b600080600080608085870312156107d0576107cf610677565b5b600085013567ffffffffffffffff8111156107ee576107ed61067c565b5b6107fa87828801610788565b945050602085013567ffffffffffffffff81111561081b5761081a61067c565b5b61082787828801610788565b935050604085013567ffffffffffffffff8111156108485761084761067c565b5b61085487828801610788565b925050606085013567ffffffffffffffff8111156108755761087461067c565b5b61088187828801610788565b91505092959194509250565b7f4e487b7100000000000000000000000000000000000000000000000000000000600052602260045260246000fd5b600060028204905060018216806108d457607f821691505b6020821081036108e7576108e661088d565b5b50919050565b60008190508160005260206000209050919050565b60006020601f8301049050919050565b600082821b905092915050565b60006008830261094f7fffffffffffffffffffffffffffffffffffffffffffffffffffffffffffffffff82610912565b6109598683610912565b95508019841693508086168417925050509392505050565b6000819050919050565b6000819050919050565b60006109a061099b61099684610971565b61097b565b610971565b9050919050565b6000819050919050565b6109ba83610985565b6109ce6109c6826109a7565b84845461091f565b825550505050565b600090565b6109e36109d6565b6109ee8184846109b1565b505050565b5b81811015610a1257610a076000826109db565b6001810190506109f4565b5050565b601f821115610a5757610a28816108ed565b610a3184610902565b81016020851015610a40578190505b610a54610a4c85610902565b8301826109f3565b50505b505050565b600082821c905092915050565b6000610a7a60001984600802610a5c565b1980831691505092915050565b6000610a938383610a69565b9150826002028217905092915050565b610aac826104e6565b67ffffffffffffffff811115610ac557610ac461068b565b5b610acf82546108bc565b610ada828285610a16565b600060209050601f831160018114610b0d5760008415610afb578287015190505b610b058582610a87565b865550610b6d565b601f198416610b1b866108ed565b60005b82811015610b4357848901518255600182019150602085019450602081019050610b1e565b86831015610b605784890151610b5c601f891682610a69565b8355505b6001600288020188555050505b50505050505056fea264697066735822122068f27b5b6ea94cdad140591381aa15c6bb8b76f3cd6fd2fd1b349bd254f4697364736f6c63430008130033",
  "immutableReferences": {},
  "source": "// SPDX-License-Identifier: MIT\npragma solidity >=0.4.22 <0.9.0;\n\ncontract VideoFeed {\n\n  string[] _owners;\n  string[] _dates;\n  string[] _times;\n  string[] _videohashes;\n\n  function addVideoHash(string memory owner,string memory date,string memory time,string memory videohash) public {\n    _owners.push(owner);\n    _dates.push(date);\n    _times.push(time);\n    _videohashes.push(videohash);\n  }\n\n  function viewHashes() public view returns(string[] memory,string[] memory,string[] memory,string[] memory) {\n    return(_owners,_dates,_times,_videohashes);\n  }\n}\n",
  "sourcePath": "/Users/ms/Downloads/cctv-footage-blockchain/contracts/VideoFeed.sol",
  "compiler": {
    "name": "solc",
    "version": "0.8.19+commit.7dd6d404.Emscripten.clang"
  },
  "schemaVersion": "3.4.16",
  "updatedAt": "2024-03-09T14:19:54.920Z",
  "networkType": "ethereum",
  "devdoc": {
    "kind": "dev",
    "methods": {},
    "version": 1
  },
  "userdoc": {
    "kind": "user",
    "methods": {},
    "version": 1
  }
}