{
  "contractName": "VideoFeed",
  "abi": [
    {
      "inputs": [],
      "stateMutability": "nonpayable",
      "type": "constructor"
    },
    {
      "inputs": [
        {
          "internalType": "uint256",
          "name": "owner",
          "type": "uint256"
        },
        {
          "internalType": "string",
          "name": "date",
          "type": "string"
        },
        {
          "internalType": "string",
          "name": "time",
          "type": "string"
        },
        {
          "internalType": "string",
          "name": "videohash",
          "type": "string"
        }
      ],
      "name": "addVideoHash",
      "outputs": [],
      "stateMutability": "nonpayable",
      "type": "function"
    },
    {
      "inputs": [],
      "name": "viewHashes",
      "outputs": [
        {
          "internalType": "uint256[]",
          "name": "",
          "type": "uint256[]"
        },
        {
          "internalType": "uint256[]",
          "name": "",
          "type": "uint256[]"
        },
        {
          "internalType": "string[]",
          "name": "",
          "type": "string[]"
        },
        {
          "internalType": "string[]",
          "name": "",
          "type": "string[]"
        },
        {
          "internalType": "string[]",
          "name": "",
          "type": "string[]"
        }
      ],
      "stateMutability": "view",
      "type": "function",
      "constant": true
    },
    {
      "inputs": [
        {
          "internalType": "uint256",
          "name": "requestby",
          "type": "uint256"
        },
        {
          "internalType": "uint256",
          "name": "requestto",
          "type": "uint256"
        },
        {
          "internalType": "uint256",
          "name": "reqstreamid",
          "type": "uint256"
        }
      ],
      "name": "sendrequest",
      "outputs": [],
      "stateMutability": "nonpayable",
      "type": "function"
    },
    {
      "inputs": [],
      "name": "viewrequest",
      "outputs": [
        {
          "internalType": "uint256[]",
          "name": "",
          "type": "uint256[]"
        },
        {
          "internalType": "uint256[]",
          "name": "",
          "type": "uint256[]"
        },
        {
          "internalType": "uint256[]",
          "name": "",
          "type": "uint256[]"
        },
        {
          "internalType": "uint256[]",
          "name": "",
          "type": "uint256[]"
        },
        {
          "internalType": "uint256[]",
          "name": "",
          "type": "uint256[]"
        }
      ],
      "stateMutability": "view",
      "type": "function",
      "constant": true
    },
    {
      "inputs": [
        {
          "internalType": "uint256",
          "name": "reid",
          "type": "uint256"
        },
        {
          "internalType": "uint256",
          "name": "restatus",
          "type": "uint256"
        }
      ],
      "name": "updaterequest",
      "outputs": [],
      "stateMutability": "nonpayable",
      "type": "function"
    }
  ],
  "bytecode": "0x608060405234801561001057600080fd5b506000600a819055506000600b8190555061121b806100306000396000f3fe608060405234801561001057600080fd5b50600436106100575760003560e01c80632ec484891461005c578063325dbcf41461007e578063624c130e146100a0578063929b3761146100bc578063c8dffb5c146100d8575b600080fd5b6100646100f4565b604051610075959493929190610a7e565b60405180910390f35b610086610434565b604051610097959493929190610af4565b60405180910390f35b6100ba60048036038101906100b59190610baa565b6105f1565b005b6100d660048036038101906100d19190610d1f565b610662565b005b6100f260048036038101906100ed9190610dda565b610775565b005b6060806060806060600060016002600360048480548060200260200160405190810160405280929190818152602001828054801561015157602002820191906000526020600020905b81548152602001906001019080831161013d575b50505050509450838054806020026020016040519081016040528092919081815260200182805480156101a357602002820191906000526020600020905b81548152602001906001019080831161018f575b5050505050935082805480602002602001604051908101604052809291908181526020016000905b828210156102775783829060005260206000200180546101ea90610e5c565b80601f016020809104026020016040519081016040528092919081815260200182805461021690610e5c565b80156102635780601f1061023857610100808354040283529160200191610263565b820191906000526020600020905b81548152906001019060200180831161024657829003601f168201915b5050505050815260200190600101906101cb565b50505050925081805480602002602001604051908101604052809291908181526020016000905b8282101561034a5783829060005260206000200180546102bd90610e5c565b80601f01602080910402602001604051908101604052809291908181526020018280546102e990610e5c565b80156103365780601f1061030b57610100808354040283529160200191610336565b820191906000526020600020905b81548152906001019060200180831161031957829003601f168201915b50505050508152602001906001019061029e565b50505050915080805480602002602001604051908101604052809291908181526020016000905b8282101561041d57838290600052602060002001805461039090610e5c565b80601f01602080910402602001604051908101604052809291908181526020018280546103bc90610e5c565b80156104095780601f106103de57610100808354040283529160200191610409565b820191906000526020600020905b8154815290600101906020018083116103ec57829003601f168201915b505050505081526020019060010190610371565b505050509050945094509450945094509091929394565b6060806060806060600560066008600760098480548060200260200160405190810160405280929190818152602001828054801561049157602002820191906000526020600020905b81548152602001906001019080831161047d575b50505050509450838054806020026020016040519081016040528092919081815260200182805480156104e357602002820191906000526020600020905b8154815260200190600101908083116104cf575b505050505093508280548060200260200160405190810160405280929190818152602001828054801561053557602002820191906000526020600020905b815481526020019060010190808311610521575b505050505092508180548060200260200160405190810160405280929190818152602001828054801561058757602002820191906000526020600020905b815481526020019060010190808311610573575b50505050509150808054806020026020016040519081016040528092919081815260200182805480156105d957602002820191906000526020600020905b8154815260200190600101908083116105c5575b50505050509050945094509450945094509091929394565b60005b60098054905081101561065d57826009828154811061061657610615610e8d565b5b90600052602060002001540361064a57816007828154811061063b5761063a610e8d565b5b90600052602060002001819055505b808061065590610eeb565b9150506105f4565b505050565b6001600a60008282546106759190610f33565b925050819055506000600a54908060018154018082558091505060019003906000526020600020016000909190919091505560018490806001815401808255809150506001900390600052602060002001600090919091909150556002839080600181540180825580915050600190039060005260206000200160009091909190915090816107049190611113565b506003829080600181540180825580915050600190039060005260206000200160009091909190915090816107399190611113565b5060048190806001815401808255809150506001900390600052602060002001600090919091909150908161076e9190611113565b5050505050565b6001600b60008282546107889190610f33565b925050819055506005839080600181540180825580915050600190039060005260206000200160009091909190915055600682908060018154018082558091505060019003906000526020600020016000909190919091505560088190806001815401808255809150506001900390600052602060002001600090919091909150556007600090806001815401808255809150506001900390600052602060002001600090919091909150556009600b549080600181540180825580915050600190039060005260206000200160009091909190915055505050565b600081519050919050565b600082825260208201905092915050565b6000819050602082019050919050565b6000819050919050565b6108a381610890565b82525050565b60006108b5838361089a565b60208301905092915050565b6000602082019050919050565b60006108d982610864565b6108e3818561086f565b93506108ee83610880565b8060005b8381101561091f57815161090688826108a9565b9750610911836108c1565b9250506001810190506108f2565b5085935050505092915050565b600081519050919050565b600082825260208201905092915050565b6000819050602082019050919050565b600081519050919050565b600082825260208201905092915050565b60005b83811015610992578082015181840152602081019050610977565b60008484015250505050565b6000601f19601f8301169050919050565b60006109ba82610958565b6109c48185610963565b93506109d4818560208601610974565b6109dd8161099e565b840191505092915050565b60006109f483836109af565b905092915050565b6000602082019050919050565b6000610a148261092c565b610a1e8185610937565b935083602082028501610a3085610948565b8060005b85811015610a6c5784840389528151610a4d85826109e8565b9450610a58836109fc565b925060208a01995050600181019050610a34565b50829750879550505050505092915050565b600060a0820190508181036000830152610a9881886108ce565b90508181036020830152610aac81876108ce565b90508181036040830152610ac08186610a09565b90508181036060830152610ad48185610a09565b90508181036080830152610ae88184610a09565b90509695505050505050565b600060a0820190508181036000830152610b0e81886108ce565b90508181036020830152610b2281876108ce565b90508181036040830152610b3681866108ce565b90508181036060830152610b4a81856108ce565b90508181036080830152610b5e81846108ce565b90509695505050505050565b6000604051905090565b600080fd5b600080fd5b610b8781610890565b8114610b9257600080fd5b50565b600081359050610ba481610b7e565b92915050565b60008060408385031215610bc157610bc0610b74565b5b6000610bcf85828601610b95565b9250506020610be085828601610b95565b9150509250929050565b600080fd5b600080fd5b7f4e487b7100000000000000000000000000000000000000000000000000000000600052604160045260246000fd5b610c2c8261099e565b810181811067ffffffffffffffff82111715610c4b57610c4a610bf4565b5b80604052505050565b6000610c5e610b6a565b9050610c6a8282610c23565b919050565b600067ffffffffffffffff821115610c8a57610c89610bf4565b5b610c938261099e565b9050602081019050919050565b82818337600083830152505050565b6000610cc2610cbd84610c6f565b610c54565b905082815260208101848484011115610cde57610cdd610bef565b5b610ce9848285610ca0565b509392505050565b600082601f830112610d0657610d05610bea565b5b8135610d16848260208601610caf565b91505092915050565b60008060008060808587031215610d3957610d38610b74565b5b6000610d4787828801610b95565b945050602085013567ffffffffffffffff811115610d6857610d67610b79565b5b610d7487828801610cf1565b935050604085013567ffffffffffffffff811115610d9557610d94610b79565b5b610da187828801610cf1565b925050606085013567ffffffffffffffff811115610dc257610dc1610b79565b5b610dce87828801610cf1565b91505092959194509250565b600080600060608486031215610df357610df2610b74565b5b6000610e0186828701610b95565b9350506020610e1286828701610b95565b9250506040610e2386828701610b95565b9150509250925092565b7f4e487b7100000000000000000000000000000000000000000000000000000000600052602260045260246000fd5b60006002820490506001821680610e7457607f821691505b602082108103610e8757610e86610e2d565b5b50919050565b7f4e487b7100000000000000000000000000000000000000000000000000000000600052603260045260246000fd5b7f4e487b7100000000000000000000000000000000000000000000000000000000600052601160045260246000fd5b6000610ef682610890565b91507fffffffffffffffffffffffffffffffffffffffffffffffffffffffffffffffff8203610f2857610f27610ebc565b5b600182019050919050565b6000610f3e82610890565b9150610f4983610890565b9250828201905080821115610f6157610f60610ebc565b5b92915050565b60008190508160005260206000209050919050565b60006020601f8301049050919050565b600082821b905092915050565b600060088302610fc97fffffffffffffffffffffffffffffffffffffffffffffffffffffffffffffffff82610f8c565b610fd38683610f8c565b95508019841693508086168417925050509392505050565b6000819050919050565b600061101061100b61100684610890565b610feb565b610890565b9050919050565b6000819050919050565b61102a83610ff5565b61103e61103682611017565b848454610f99565b825550505050565b600090565b611053611046565b61105e818484611021565b505050565b5b818110156110825761107760008261104b565b600181019050611064565b5050565b601f8211156110c75761109881610f67565b6110a184610f7c565b810160208510156110b0578190505b6110c46110bc85610f7c565b830182611063565b50505b505050565b600082821c905092915050565b60006110ea600019846008026110cc565b1980831691505092915050565b600061110383836110d9565b9150826002028217905092915050565b61111c82610958565b67ffffffffffffffff81111561113557611134610bf4565b5b61113f8254610e5c565b61114a828285611086565b600060209050601f83116001811461117d576000841561116b578287015190505b61117585826110f7565b8655506111dd565b601f19841661118b86610f67565b60005b828110156111b35784890151825560018201915060208501945060208101905061118e565b868310156111d057848901516111cc601f8916826110d9565b8355505b6001600288020188555050505b50505050505056fea2646970667358221220cba6a0384384f2861153488b12a4a01d438a42bf8b8f565d1c1354d786995b8764736f6c63430008130033",
  "immutableReferences": {},
  "source": "// SPDX-License-Identifier: MIT\r\npragma solidity >=0.4.22 <0.9.0;\r\n\r\ncontract VideoFeed {\r\n\r\n  uint[] _streamids;\r\n  uint[] _owners;\r\n  string[] _dates;\r\n  string[] _times;\r\n  string[] _videohashes;\r\n\r\n  uint[] _requestby;\r\n  uint[] _requestto;\r\n  uint[] _reqstatus;\r\n  uint[] _reqstreamids;\r\n  uint[] _reqids;\r\n\r\n  uint streamid;\r\n  uint reqid;\r\n\r\n  constructor() {\r\n    streamid=0;\r\n    reqid=0;\r\n  }\r\n\r\n  function addVideoHash(uint owner,string memory date,string memory time,string memory videohash) public {\r\n    streamid+=1;\r\n    _streamids.push(streamid);\r\n    _owners.push(owner);\r\n    _dates.push(date);\r\n    _times.push(time);\r\n    _videohashes.push(videohash);\r\n  }\r\n\r\n  function viewHashes() public view returns(uint[] memory,uint[] memory,string[] memory,string[] memory,string[] memory) {\r\n    return(_streamids,_owners,_dates,_times,_videohashes);\r\n  }\r\n\r\n  function sendrequest(uint requestby,uint requestto,uint reqstreamid) public {\r\n    reqid+=1;\r\n    _requestby.push(requestby);\r\n    _requestto.push(requestto);\r\n    _reqstreamids.push(reqstreamid);\r\n    _reqstatus.push(0);\r\n    _reqids.push(reqid);\r\n  }\r\n\r\n  function viewrequest() public view returns(uint[] memory,uint[] memory,uint[] memory,uint[] memory,uint[] memory){\r\n    return(_requestby,_requestto,_reqstreamids,_reqstatus,_reqids);\r\n  }\r\n\r\n  function updaterequest(uint reid,uint restatus) public {\r\n    uint i;\r\n    for(i=0;i<_reqids.length;i++){\r\n      if(_reqids[i]==reid){\r\n        _reqstatus[i]=restatus;\r\n      }\r\n    }\r\n  }\r\n}\r\n",
  "sourcePath": "C:\\Users\\Madhu\\Desktop\\cctv-footage-detection\\contracts\\VideoFeed.sol",
  "compiler": {
    "name": "solc",
    "version": "0.8.19+commit.7dd6d404.Emscripten.clang"
  },
  "schemaVersion": "3.4.16",
  "updatedAt": "2024-03-10T07:50:52.481Z",
  "networkType": "ethereum",
  "devdoc": {
    "kind": "dev",
    "methods": {},
    "version": 1
  },
  "userdoc": {
    "kind": "user",
    "methods": {},
    "version": 1
  }
}